{
  "contractName": "EscrowAgent",
  "abi": [
    {
      "constant": true,
      "inputs": [
        {
          "name": "",
          "type": "bytes32"
        }
      ],
      "name": "escrows",
      "outputs": [
        {
          "name": "tradeID",
          "type": "bytes16"
        },
        {
          "name": "seller",
          "type": "address"
        },
        {
          "name": "buyer",
          "type": "address"
        },
        {
          "name": "value",
          "type": "uint256"
        },
        {
          "name": "balance",
          "type": "uint256"
        },
        {
          "name": "buyerApproved",
          "type": "bool"
        },
        {
          "name": "sellerApproved",
          "type": "bool"
        }
      ],
      "payable": false,
      "stateMutability": "view",
      "type": "function"
    },
    {
      "inputs": [],
      "payable": false,
      "stateMutability": "nonpayable",
      "type": "constructor"
    },
    {
      "constant": false,
      "inputs": [
        {
          "name": "tradeID",
          "type": "bytes16"
        },
        {
          "name": "seller",
          "type": "address"
        },
        {
          "name": "buyer",
          "type": "address"
        },
        {
          "name": "value",
          "type": "uint256"
        }
      ],
      "name": "createEscrow",
      "outputs": [],
      "payable": false,
      "stateMutability": "nonpayable",
      "type": "function"
    }
  ],
  "bytecode": "0x6060604052341561000f57600080fd5b336000806101000a81548173ffffffffffffffffffffffffffffffffffffffff021916908373ffffffffffffffffffffffffffffffffffffffff16021790555033600160006101000a81548173ffffffffffffffffffffffffffffffffffffffff021916908373ffffffffffffffffffffffffffffffffffffffff16021790555061052e8061009f6000396000f30060606040526004361061004c576000357c0100000000000000000000000000000000000000000000000000000000900463ffffffff1680632d83549c14610051578063919be8801461013c575b600080fd5b341561005c57600080fd5b6100766004808035600019169060200190919050506101b9565b60405180886fffffffffffffffffffffffffffffffff19166fffffffffffffffffffffffffffffffff191681526020018773ffffffffffffffffffffffffffffffffffffffff1673ffffffffffffffffffffffffffffffffffffffff1681526020018673ffffffffffffffffffffffffffffffffffffffff1673ffffffffffffffffffffffffffffffffffffffff168152602001858152602001848152602001831515151581526020018215151515815260200197505050505050505060405180910390f35b341561014757600080fd5b6101b760048080356fffffffffffffffffffffffffffffffff191690602001909190803573ffffffffffffffffffffffffffffffffffffffff1690602001909190803573ffffffffffffffffffffffffffffffffffffffff16906020019091908035906020019091905050610272565b005b60026020528060005260406000206000915090508060000160009054906101000a900470010000000000000000000000000000000002908060010160009054906101000a900473ffffffffffffffffffffffffffffffffffffffff16908060020160009054906101000a900473ffffffffffffffffffffffffffffffffffffffff16908060030154908060040154908060050160009054906101000a900460ff16908060050160019054906101000a900460ff16905087565b60008484848460405180856fffffffffffffffffffffffffffffffff19166fffffffffffffffffffffffffffffffff191681526010018473ffffffffffffffffffffffffffffffffffffffff1673ffffffffffffffffffffffffffffffffffffffff166c010000000000000000000000000281526014018373ffffffffffffffffffffffffffffffffffffffff1673ffffffffffffffffffffffffffffffffffffffff166c010000000000000000000000000281526014018281526020019450505050506040518091039020905060e060405190810160405280866fffffffffffffffffffffffffffffffff191681526020018473ffffffffffffffffffffffffffffffffffffffff1681526020018573ffffffffffffffffffffffffffffffffffffffff168152602001838152602001600081526020016000151581526020016000151581525060026000836000191660001916815260200190815260200160002060008201518160000160006101000a8154816fffffffffffffffffffffffffffffffff02191690837001000000000000000000000000000000009004021790555060208201518160010160006101000a81548173ffffffffffffffffffffffffffffffffffffffff021916908373ffffffffffffffffffffffffffffffffffffffff16021790555060408201518160020160006101000a81548173ffffffffffffffffffffffffffffffffffffffff021916908373ffffffffffffffffffffffffffffffffffffffff160217905550606082015181600301556080820151816004015560a08201518160050160006101000a81548160ff02191690831515021790555060c08201518160050160016101000a81548160ff02191690831515021790555090505050505050505600a165627a7a7230582075f8195c8093e415b46ef4a5cd9be18943c3cec373bb0d2d9d78a3b529d8b2640029",
  "source": "pragma solidity ^0.4.17;\r\n\r\ncontract EscrowAgent {\r\n\r\n    address owner;\r\n    address arbiter;\r\n\r\n    struct Escrow {\r\n        bytes16 tradeID;\r\n        address seller;\r\n        address buyer;\r\n        uint value;\r\n        uint balance;\r\n        bool buyerApproved;\r\n        bool sellerApproved;\r\n    }\r\n    mapping (bytes32 => Escrow) public escrows;\r\n\r\n    function EscrowAgent() public {\r\n        owner = msg.sender;\r\n        arbiter = msg.sender;\r\n    }\r\n\r\n    function createEscrow(bytes16 tradeID, address seller, address buyer, uint value) public {\r\n        bytes32 tradeHash = keccak256(tradeID, seller, buyer, value);\r\n        escrows[tradeHash] = Escrow(tradeID, buyer, seller, value, 0, false, false);\r\n    }\r\n}",
  "sourcePath": "C:\\Users\\Okabi\\OneDrive\\University\\Year 3\\Independant Studies\\Workspace\\Ethereum Development\\Test Projects\\escrow\\contracts\\EscrowAgent.sol",
  "compiler": {
    "name": "solc",
    "version": "0.4.19+commit.c4cbbb05.Emscripten.clang"
  },
  "schemaVersion": "1.0.1",
  "updatedAt": "2018-02-13T18:40:59.009Z"
}