{
  "contractName": "EscrowAgent",
  "abi": [
    {
      "constant": true,
      "inputs": [
        {
          "name": "",
          "type": "bytes32"
        }
      ],
      "name": "escrows",
      "outputs": [
        {
          "name": "active",
          "type": "bool"
        },
        {
          "name": "seller",
          "type": "address"
        },
        {
          "name": "buyer",
          "type": "address"
        },
        {
          "name": "balance",
          "type": "uint256"
        },
        {
          "name": "isBuyerApproved",
          "type": "bool"
        },
        {
          "name": "isSellerApproved",
          "type": "bool"
        },
        {
          "name": "isDisputed",
          "type": "bool"
        }
      ],
      "payable": false,
      "stateMutability": "view",
      "type": "function"
    },
    {
      "inputs": [],
      "payable": false,
      "stateMutability": "nonpayable",
      "type": "constructor"
    },
    {
      "anonymous": false,
      "inputs": [
        {
          "indexed": false,
          "name": "escrowHash",
          "type": "bytes32"
        }
      ],
      "name": "Created",
      "type": "event"
    },
    {
      "anonymous": false,
      "inputs": [
        {
          "indexed": false,
          "name": "escrowHash",
          "type": "bytes32"
        },
        {
          "indexed": false,
          "name": "approvedFrom",
          "type": "address"
        }
      ],
      "name": "BuyerApproved",
      "type": "event"
    },
    {
      "anonymous": false,
      "inputs": [
        {
          "indexed": false,
          "name": "escrowHash",
          "type": "bytes32"
        },
        {
          "indexed": false,
          "name": "approvedFrom",
          "type": "address"
        }
      ],
      "name": "SellerApproved",
      "type": "event"
    },
    {
      "anonymous": false,
      "inputs": [
        {
          "indexed": false,
          "name": "escrowHash",
          "type": "bytes32"
        },
        {
          "indexed": false,
          "name": "tranferedTo",
          "type": "address"
        },
        {
          "indexed": false,
          "name": "value",
          "type": "uint256"
        }
      ],
      "name": "PaidOut",
      "type": "event"
    },
    {
      "anonymous": false,
      "inputs": [
        {
          "indexed": false,
          "name": "escrowHash",
          "type": "bytes32"
        },
        {
          "indexed": false,
          "name": "disputedBy",
          "type": "address"
        }
      ],
      "name": "Disputed",
      "type": "event"
    },
    {
      "anonymous": false,
      "inputs": [
        {
          "indexed": false,
          "name": "escrowHash",
          "type": "bytes32"
        },
        {
          "indexed": false,
          "name": "arbitratedBy",
          "type": "address"
        },
        {
          "indexed": false,
          "name": "awardedTo",
          "type": "address"
        }
      ],
      "name": "DisputeResolved",
      "type": "event"
    },
    {
      "constant": false,
      "inputs": [
        {
          "name": "seller",
          "type": "address"
        },
        {
          "name": "buyer",
          "type": "address"
        }
      ],
      "name": "createEscrow",
      "outputs": [
        {
          "name": "escrowHash",
          "type": "bytes32"
        }
      ],
      "payable": true,
      "stateMutability": "payable",
      "type": "function"
    },
    {
      "constant": false,
      "inputs": [
        {
          "name": "escrowHash",
          "type": "bytes32"
        }
      ],
      "name": "approve",
      "outputs": [],
      "payable": false,
      "stateMutability": "nonpayable",
      "type": "function"
    },
    {
      "constant": false,
      "inputs": [
        {
          "name": "escrowHash",
          "type": "bytes32"
        }
      ],
      "name": "dispute",
      "outputs": [],
      "payable": false,
      "stateMutability": "nonpayable",
      "type": "function"
    },
    {
      "constant": false,
      "inputs": [
        {
          "name": "escrowHash",
          "type": "bytes32"
        },
        {
          "name": "awardedTo",
          "type": "address"
        }
      ],
      "name": "arbitrate",
      "outputs": [],
      "payable": false,
      "stateMutability": "nonpayable",
      "type": "function"
    }
  ],
  "bytecode": "0x6060604052341561000f57600080fd5b336000806101000a81548173ffffffffffffffffffffffffffffffffffffffff021916908373ffffffffffffffffffffffffffffffffffffffff16021790555033600160006101000a81548173ffffffffffffffffffffffffffffffffffffffff021916908373ffffffffffffffffffffffffffffffffffffffff160217905550610ec88061009f6000396000f30060606040526004361061006d576000357c0100000000000000000000000000000000000000000000000000000000900463ffffffff1680632d83549c146100725780634f55f3921461013f578063834cc6fc14610185578063a53a1adf146101ee578063add98c7014610215575b600080fd5b341561007d57600080fd5b61009760048080356000191690602001909190505061023c565b60405180881515151581526020018773ffffffffffffffffffffffffffffffffffffffff1673ffffffffffffffffffffffffffffffffffffffff1681526020018673ffffffffffffffffffffffffffffffffffffffff1673ffffffffffffffffffffffffffffffffffffffff16815260200185815260200184151515158152602001831515151581526020018215151515815260200197505050505050505060405180910390f35b341561014a57600080fd5b61018360048080356000191690602001909190803573ffffffffffffffffffffffffffffffffffffffff169060200190919050506102f2565b005b6101d0600480803573ffffffffffffffffffffffffffffffffffffffff1690602001909190803573ffffffffffffffffffffffffffffffffffffffff169060200190919050506105ce565b60405180826000191660001916815260200191505060405180910390f35b34156101f957600080fd5b610213600480803560001916906020019091905050610898565b005b341561022057600080fd5b61023a600480803560001916906020019091905050610ba2565b005b60026020528060005260406000206000915090508060000160009054906101000a900460ff16908060000160019054906101000a900473ffffffffffffffffffffffffffffffffffffffff16908060010160009054906101000a900473ffffffffffffffffffffffffffffffffffffffff16908060020154908060030160009054906101000a900460ff16908060030160019054906101000a900460ff16908060030160029054906101000a900460ff16905087565b6000600160009054906101000a900473ffffffffffffffffffffffffffffffffffffffff1673ffffffffffffffffffffffffffffffffffffffff163373ffffffffffffffffffffffffffffffffffffffff1614151561035057600080fd5b60026000846000191660001916815260200190815260200160002090508060000160009054906101000a900460ff16151561038a57600080fd5b8060030160029054906101000a900460ff1615156103a757600080fd5b8060010160009054906101000a900473ffffffffffffffffffffffffffffffffffffffff1673ffffffffffffffffffffffffffffffffffffffff168273ffffffffffffffffffffffffffffffffffffffff16148061045457508060000160019054906101000a900473ffffffffffffffffffffffffffffffffffffffff1673ffffffffffffffffffffffffffffffffffffffff168273ffffffffffffffffffffffffffffffffffffffff16145b151561045f57600080fd5b8173ffffffffffffffffffffffffffffffffffffffff166108fc82600201549081150290604051600060405180830381858888f1935050505015156104a357600080fd5b7ff4292e0ae547c949263a88899ebcdac1a5493bef4f206b7592b5a7de68f4c0de838383600201546040518084600019166000191681526020018373ffffffffffffffffffffffffffffffffffffffff1673ffffffffffffffffffffffffffffffffffffffff168152602001828152602001935050505060405180910390a17f41f67fe3f67f1dce68769486352c3bc7c5c5acda8d3c0e6628f918c255e34a0b8333846040518084600019166000191681526020018373ffffffffffffffffffffffffffffffffffffffff1673ffffffffffffffffffffffffffffffffffffffff1681526020018273ffffffffffffffffffffffffffffffffffffffff1673ffffffffffffffffffffffffffffffffffffffff168152602001935050505060405180910390a1505050565b600082823442604051808573ffffffffffffffffffffffffffffffffffffffff1673ffffffffffffffffffffffffffffffffffffffff166c010000000000000000000000000281526014018473ffffffffffffffffffffffffffffffffffffffff1673ffffffffffffffffffffffffffffffffffffffff166c010000000000000000000000000281526014018381526020018281526020019450505050506040518091039020905060026000826000191660001916815260200190815260200160002060000160009054906101000a900460ff161515156106ae57600080fd5b60e0604051908101604052806001151581526020018473ffffffffffffffffffffffffffffffffffffffff1681526020018373ffffffffffffffffffffffffffffffffffffffff1681526020013481526020016000151581526020016000151581526020016000151581525060026000836000191660001916815260200190815260200160002060008201518160000160006101000a81548160ff02191690831515021790555060208201518160000160016101000a81548173ffffffffffffffffffffffffffffffffffffffff021916908373ffffffffffffffffffffffffffffffffffffffff16021790555060408201518160010160006101000a81548173ffffffffffffffffffffffffffffffffffffffff021916908373ffffffffffffffffffffffffffffffffffffffff1602179055506060820151816002015560808201518160030160006101000a81548160ff02191690831515021790555060a08201518160030160016101000a81548160ff02191690831515021790555060c08201518160030160026101000a81548160ff0219169083151502179055509050507f102d25c49d33fcdb8976a3f2744e0785c98d9e43b88364859e6aec4ae82eff5c8160405180826000191660001916815260200191505060405180910390a180905092915050565b600060026000836000191660001916815260200190815260200160002090508060000160009054906101000a900460ff1615156108d457600080fd5b8060010160009054906101000a900473ffffffffffffffffffffffffffffffffffffffff1673ffffffffffffffffffffffffffffffffffffffff163373ffffffffffffffffffffffffffffffffffffffff16148061098157508060000160019054906101000a900473ffffffffffffffffffffffffffffffffffffffff1673ffffffffffffffffffffffffffffffffffffffff163373ffffffffffffffffffffffffffffffffffffffff16145b151561098c57600080fd5b8060010160009054906101000a900473ffffffffffffffffffffffffffffffffffffffff1673ffffffffffffffffffffffffffffffffffffffff163373ffffffffffffffffffffffffffffffffffffffff161415610a795760018160030160006101000a81548160ff0219169083151502179055507f7cf3ec2d887238bf75f0c1028b061011b9d7b6b736024c28791def5d17926d3a82336040518083600019166000191681526020018273ffffffffffffffffffffffffffffffffffffffff1673ffffffffffffffffffffffffffffffffffffffff1681526020019250505060405180910390a1610b63565b8060000160019054906101000a900473ffffffffffffffffffffffffffffffffffffffff1673ffffffffffffffffffffffffffffffffffffffff163373ffffffffffffffffffffffffffffffffffffffff161415610b625760018160030160016101000a81548160ff0219169083151502179055507f85edfd1adb189afe8978fd23bedc0f59e4f1f1e0ebeb90f6956e08b922c9762782336040518083600019166000191681526020018273ffffffffffffffffffffffffffffffffffffffff1673ffffffffffffffffffffffffffffffffffffffff1681526020019250505060405180910390a15b5b8060030160009054906101000a900460ff168015610b8f57508060030160019054906101000a900460ff165b15610b9e57610b9d82610d2a565b5b5050565b600060026000836000191660001916815260200190815260200160002090508060000160009054906101000a900460ff161515610bde57600080fd5b8060010160009054906101000a900473ffffffffffffffffffffffffffffffffffffffff1673ffffffffffffffffffffffffffffffffffffffff163373ffffffffffffffffffffffffffffffffffffffff161480610c8b57508060000160019054906101000a900473ffffffffffffffffffffffffffffffffffffffff1673ffffffffffffffffffffffffffffffffffffffff163373ffffffffffffffffffffffffffffffffffffffff16145b1515610c9657600080fd5b60018160030160026101000a81548160ff0219169083151502179055507f0ba174eb1c3530da63920b98261208eeb30b48447d1cfcbbdf116fd4ee8c62db82336040518083600019166000191681526020018273ffffffffffffffffffffffffffffffffffffffff1673ffffffffffffffffffffffffffffffffffffffff1681526020019250505060405180910390a15050565b600060026000836000191660001916815260200190815260200160002090508060000160009054906101000a900460ff161515610d6657600080fd5b8060000160019054906101000a900473ffffffffffffffffffffffffffffffffffffffff1673ffffffffffffffffffffffffffffffffffffffff166108fc82600201549081150290604051600060405180830381858888f193505050501515610dce57600080fd5b7ff4292e0ae547c949263a88899ebcdac1a5493bef4f206b7592b5a7de68f4c0de828260000160019054906101000a900473ffffffffffffffffffffffffffffffffffffffff1683600201546040518084600019166000191681526020018373ffffffffffffffffffffffffffffffffffffffff1673ffffffffffffffffffffffffffffffffffffffff168152602001828152602001935050505060405180910390a16000816002018190555060008160000160006101000a81548160ff02191690831515021790555050505600a165627a7a7230582010fdecb48402b39d5a9a94c56a4e55af0e74d3ec3d2a5d91fc1e69080c4d12760029",
  "source": "pragma solidity ^0.4.19;\r\n\r\ncontract EscrowAgent {\r\n\r\n    address owner;\r\n    address arbitrator;\r\n\r\n    event Created(bytes32 escrowHash);\r\n    event BuyerApproved(bytes32 escrowHash, address approvedFrom);\r\n    event SellerApproved(bytes32 escrowHash, address approvedFrom);\r\n    event PaidOut(bytes32 escrowHash, address tranferedTo, uint value);\r\n    event Disputed(bytes32 escrowHash, address disputedBy);\r\n    event DisputeResolved(bytes32 escrowHash, address arbitratedBy, address awardedTo);\r\n\r\n    struct Escrow {\r\n        bool active;\r\n        address seller;\r\n        address buyer;\r\n        uint balance;\r\n        bool isBuyerApproved;\r\n        bool isSellerApproved;\r\n        bool isDisputed;\r\n    }\r\n\r\n    mapping (bytes32 => Escrow) public escrows;\r\n\r\n    modifier onlyArbitrator() {\r\n        require(msg.sender == arbitrator);\r\n        _;\r\n    }\r\n\r\n    function EscrowAgent() public {\r\n        owner = msg.sender;\r\n        arbitrator = msg.sender;\r\n    }\r\n\r\n    function createEscrow(address seller, address buyer) payable external returns (bytes32 escrowHash) {\r\n        escrowHash = keccak256(seller, buyer, msg.value, now);\r\n        require(!escrows[escrowHash].active);\r\n        escrows[escrowHash] = Escrow(true, seller, buyer, msg.value, false, false, false);\r\n        Created(escrowHash);\r\n        return escrowHash;\r\n    }\r\n\r\n    function approve(bytes32 escrowHash) public {\r\n        Escrow storage escrow = escrows[escrowHash];\r\n        require(escrow.active);\r\n        require(msg.sender == escrow.buyer || msg.sender == escrow.seller);\r\n\r\n        if (msg.sender == escrow.buyer) {\r\n            escrow.isBuyerApproved = true;\r\n            BuyerApproved(escrowHash, msg.sender);\r\n        } else if (msg.sender == escrow.seller) {\r\n            escrow.isSellerApproved = true;\r\n            SellerApproved(escrowHash, msg.sender);\r\n        }\r\n\r\n        if (escrow.isBuyerApproved && escrow.isSellerApproved) {\r\n            payout(escrowHash);\r\n        }\r\n    }\r\n\r\n    function payout(bytes32 escrowHash) private {\r\n        Escrow storage escrow = escrows[escrowHash];\r\n        require(escrow.active);\r\n        escrow.seller.transfer(escrow.balance);\r\n        PaidOut(escrowHash, escrow.seller, escrow.balance);\r\n        escrow.balance = 0;\r\n        escrow.active = false;\r\n    }\r\n\r\n    function dispute(bytes32 escrowHash) public {\r\n        Escrow storage escrow = escrows[escrowHash];\r\n        require(escrow.active);\r\n        require(msg.sender == escrow.buyer || msg.sender == escrow.seller);\r\n        escrow.isDisputed = true;\r\n        Disputed(escrowHash, msg.sender);\r\n    }\r\n\r\n    function arbitrate(bytes32 escrowHash, address awardedTo) public onlyArbitrator {\r\n        Escrow storage escrow = escrows[escrowHash];\r\n        require(escrow.active);\r\n        require(escrow.isDisputed);\r\n        require(awardedTo == escrow.buyer || awardedTo == escrow.seller);\r\n        awardedTo.transfer(escrow.balance);\r\n        PaidOut(escrowHash, awardedTo, escrow.balance);\r\n        DisputeResolved(escrowHash, msg.sender, awardedTo);\r\n    }\r\n\r\n    // TODO: Look at modifer methods to replace the regular require checks\r\n}",
  "sourcePath": "D:\\Users\\Oliver\\OneDrive\\University\\Year 3\\Independant Studies\\Workspace\\Ethereum Development\\Test Projects\\onchain-market\\contracts\\EscrowAgent.sol",
  "compiler": {
    "name": "solc",
    "version": "0.4.19+commit.c4cbbb05.Emscripten.clang"
  },
  "schemaVersion": "2.0.0",
  "updatedAt": "2018-03-10T14:22:04.488Z"
}